{
  "contractName": "DogsUpdated",
  "abi": [
    {
      "constant": true,
      "inputs": [],
      "name": "_initialized",
      "outputs": [
        {
          "name": "",
          "type": "bool"
        }
      ],
      "payable": false,
      "stateMutability": "view",
      "type": "function"
    },
    {
      "constant": true,
      "inputs": [],
      "name": "owner",
      "outputs": [
        {
          "name": "",
          "type": "address"
        }
      ],
      "payable": false,
      "stateMutability": "view",
      "type": "function"
    },
    {
      "inputs": [],
      "payable": false,
      "stateMutability": "nonpayable",
      "type": "constructor"
    },
    {
      "constant": false,
      "inputs": [
        {
          "name": "_owner",
          "type": "address"
        }
      ],
      "name": "init",
      "outputs": [],
      "payable": false,
      "stateMutability": "nonpayable",
      "type": "function"
    },
    {
      "constant": true,
      "inputs": [],
      "name": "getNumberOfDogs",
      "outputs": [
        {
          "name": "",
          "type": "uint256"
        }
      ],
      "payable": false,
      "stateMutability": "view",
      "type": "function"
    },
    {
      "constant": false,
      "inputs": [
        {
          "name": "toSet",
          "type": "uint256"
        }
      ],
      "name": "setNumberOfDogs",
      "outputs": [],
      "payable": false,
      "stateMutability": "nonpayable",
      "type": "function"
    }
  ],
  "bytecode": "0x608060405234801561001057600080fd5b506100293361002e640100000000026401000000009004565b6100a9565b600560149054906101000a900460ff1615151561004a57600080fd5b80600560006101000a81548173ffffffffffffffffffffffffffffffffffffffff021916908373ffffffffffffffffffffffffffffffffffffffff1602179055506001600560146101000a81548160ff02191690831515021790555050565b610371806100b86000396000f3fe608060405260043610610067576000357c01000000000000000000000000000000000000000000000000000000009004806314861b221461006c5780631680a5ed146100a757806319ab453c146100d25780633072cf60146101235780638da5cb5b14610152575b600080fd5b34801561007857600080fd5b506100a56004803603602081101561008f57600080fd5b81019080803590602001909291905050506101a9565b005b3480156100b357600080fd5b506100bc61024b565b6040518082815260200191505060405180910390f35b3480156100de57600080fd5b50610121600480360360208110156100f557600080fd5b81019080803573ffffffffffffffffffffffffffffffffffffffff169060200190929190505050610291565b005b34801561012f57600080fd5b5061013861030c565b604051808215151515815260200191505060405180910390f35b34801561015e57600080fd5b5061016761031f565b604051808273ffffffffffffffffffffffffffffffffffffffff1673ffffffffffffffffffffffffffffffffffffffff16815260200191505060405180910390f35b600560009054906101000a900473ffffffffffffffffffffffffffffffffffffffff1673ffffffffffffffffffffffffffffffffffffffff163373ffffffffffffffffffffffffffffffffffffffff1614151561020557600080fd5b80600160405180807f446f677300000000000000000000000000000000000000000000000000000000815250600401905090815260200160405180910390208190555050565b6000600160405180807f446f6773000000000000000000000000000000000000000000000000000000008152506004019050908152602001604051809103902054905090565b600560149054906101000a900460ff161515156102ad57600080fd5b80600560006101000a81548173ffffffffffffffffffffffffffffffffffffffff021916908373ffffffffffffffffffffffffffffffffffffffff1602179055506001600560146101000a81548160ff02191690831515021790555050565b600560149054906101000a900460ff1681565b600560009054906101000a900473ffffffffffffffffffffffffffffffffffffffff168156fea165627a7a72305820955977a7e529c3f2e45b682389b5e271a6db4d6f34d9dab0b8e06e253c37cf1f0029",
  "source": "pragma solidity 0.5.1; \n\nimport \"./Storage.sol\";\n\ncontract DogsUpdated is Storage {  \n\n    constructor() public { \n        init(msg.sender);\n        \n    }\n\n    function init(address _owner) public { \n        require(!_initialized);\n        owner = _owner; \n        _initialized = true; \n    }\n\n    modifier onlyOwner() { \n        require(msg.sender == owner);\n        _;\n    }\n\n    function getNumberOfDogs() public view returns(uint256){\n        return _uint_storage[\"Dogs\"];\n    }\n\n    function setNumberOfDogs(uint256 toSet) public onlyOwner {\n        _uint_storage[\"Dogs\"] = toSet;\n    }\n}",
  "sourcePath": "/Users/nadia/Documents/github/proxy_contract/contracts/DogsUpdated.sol",
  "compiler": {
    "name": "solc",
    "version": "0.5.1+commit.c8a2cb62.Emscripten.clang"
  },
  "schemaVersion": "3.4.3",
  "updatedAt": "2021-12-06T16:43:16.456Z",
  "networkType": "ethereum",
  "devdoc": {
    "methods": {}
  },
  "userdoc": {
    "methods": {}
  }
}