{
  "contractName": "Proxy",
  "abi": [
    {
      "inputs": [
        {
          "name": "_currentAddress",
          "type": "address"
        }
      ],
      "payable": false,
      "stateMutability": "nonpayable",
      "type": "constructor"
    },
    {
      "payable": true,
      "stateMutability": "payable",
      "type": "fallback"
    },
    {
      "constant": false,
      "inputs": [
        {
          "name": "_newAddress",
          "type": "address"
        }
      ],
      "name": "upgrade",
      "outputs": [],
      "payable": false,
      "stateMutability": "nonpayable",
      "type": "function"
    }
  ],
  "bytecode": "0x608060405234801561001057600080fd5b5060405160208061027f8339810180604052602081101561003057600080fd5b8101908080519060200190929190505050806000806101000a81548173ffffffffffffffffffffffffffffffffffffffff021916908373ffffffffffffffffffffffffffffffffffffffff160217905550506101ee806100916000396000f3fe60806040526004361061003b576000357c0100000000000000000000000000000000000000000000000000000000900480630900f0101461012e575b60008060009054906101000a900473ffffffffffffffffffffffffffffffffffffffff169050600073ffffffffffffffffffffffffffffffffffffffff166000809054906101000a900473ffffffffffffffffffffffffffffffffffffffff1673ffffffffffffffffffffffffffffffffffffffff16141515156100be57600080fd5b60606000368080601f016020809104026020016040519081016040528093929190818152602001838380828437600081840152601f19601f820116905080830192505050505050509050600080825160208401855af43d604051816000823e826000811461012a578282f35b8282fd5b34801561013a57600080fd5b5061017d6004803603602081101561015157600080fd5b81019080803573ffffffffffffffffffffffffffffffffffffffff16906020019092919050505061017f565b005b806000806101000a81548173ffffffffffffffffffffffffffffffffffffffff021916908373ffffffffffffffffffffffffffffffffffffffff1602179055505056fea165627a7a72305820c05e16f8a47a82cc7323d3c7bdf4a6397e28360e128579febaded499591a6eb50029",
  "source": "pragma solidity 0.5.1; \n\nimport \"./Storage.sol\";\n\ncontract Proxy { \n\n    address currentAddress; \n\n    constructor(address _currentAddress) public { \n        currentAddress = _currentAddress; \n    }\n\n    function upgrade(address _newAddress) public { \n        currentAddress = _newAddress; \n    }\n\n    // fallback function \n    function() payable external { \n        address implementation = currentAddress; \n        require(currentAddress != address(0));\n        bytes memory data = msg.data; \n\n        assembly { \n            let result := delegatecall(gas, implementation, add(data, 0x20), mload(data), 0, 0)\n            let size := returndatasize\n            let ptr := mload(0x40)\n            returndatacopy(ptr, 0, size)\n            switch result \n            case 0 {revert(ptr, size)}\n            default {return(ptr, size)}\n        }\n    }\n}",
  "sourcePath": "/Users/nadia/Documents/github/proxy_contract/contracts/Proxy.sol",
  "compiler": {
    "name": "solc",
    "version": "0.5.1+commit.c8a2cb62.Emscripten.clang"
  },
  "schemaVersion": "3.4.3",
  "updatedAt": "2021-12-06T16:43:16.457Z",
  "networkType": "ethereum",
  "devdoc": {
    "methods": {}
  },
  "userdoc": {
    "methods": {}
  }
}