{
  "contractName": "Storage",
  "abi": [
    {
      "constant": true,
      "inputs": [],
      "name": "_initialized",
      "outputs": [
        {
          "name": "",
          "type": "bool"
        }
      ],
      "payable": false,
      "stateMutability": "view",
      "type": "function"
    },
    {
      "constant": true,
      "inputs": [],
      "name": "owner",
      "outputs": [
        {
          "name": "",
          "type": "address"
        }
      ],
      "payable": false,
      "stateMutability": "view",
      "type": "function"
    }
  ],
  "bytecode": "0x608060405234801561001057600080fd5b50610136806100206000396000f3fe608060405260043610610046576000357c0100000000000000000000000000000000000000000000000000000000900480633072cf601461004b5780638da5cb5b1461007a575b600080fd5b34801561005757600080fd5b506100606100d1565b604051808215151515815260200191505060405180910390f35b34801561008657600080fd5b5061008f6100e4565b604051808273ffffffffffffffffffffffffffffffffffffffff1673ffffffffffffffffffffffffffffffffffffffff16815260200191505060405180910390f35b600560149054906101000a900460ff1681565b600560009054906101000a900473ffffffffffffffffffffffffffffffffffffffff168156fea165627a7a72305820d725a109b1f9fb42cada6b1ade6c70c9e99ac7d4e2fc9241c047d1d7c292ad970029",
  "source": "pragma solidity 0.5.1;\n\ncontract Storage{ \n    mapping (string => string) _str_storage;  \n    mapping (string => uint256) _uint_storage;\n    mapping (string => address) _address_storage;\n    mapping (string => bool) _bool_storage;  \n    mapping (string => bytes4) _bytes_storage;  \n    address public owner; \n    bool public _initialized; \n\n\n}",
  "sourcePath": "/Users/nadia/Documents/github/proxy_contract/contracts/Storage.sol",
  "compiler": {
    "name": "solc",
    "version": "0.5.1+commit.c8a2cb62.Emscripten.clang"
  },
  "schemaVersion": "3.4.3",
  "updatedAt": "2021-12-06T13:49:25.466Z",
  "devdoc": {
    "methods": {}
  },
  "userdoc": {
    "methods": {}
  }
}